:020000020000FC
:100000000C94A2031895189518951895189518959D
:100010001895189518951895189518951895189578
:100020001895189518951895189518951895189568
:100030000C94610218951895189518950C945B020C
:100040001895189518951895189518951895189548
:100050001895189518951895189518951895189538
:100060001895189518951895189518951895189528
:1000700018951895189518950C942F0318951895A0
:100080001895189518951895189518950001E40974
:10009000E30945B80902AB091124090BE908013D40
:1000A0000901B80901B60901AB09023D0905D608E5
:1000B00001170901240903F208022409032009FB9E
:1000C0000E949D060091C80400FF38C08091C604BC
:1000D0009091C7049F63282F30E019E435D0292F71
:1000E00030E01AE431D0890F80958395282F30E0D5
:1000F0001EEF27D004E12AD08AE015E004EA0E942E
:10010000DD02A02FB0E0BA930A9308EC13E00E943E
:10011000920A2296A0FB56F02AEA30E01FEF11D097
:10012000E8ECF4E000810E7F008304C00AE00ED00A
:100130008A9519F7EDECF4E0B083B183E4E00C9418
:10014000AE0604EA0C94C402FCDF01E010E00C945B
:10015000F900B9910895BA93AA93A6EFB3E000917C
:10016000C80401FF2EC04D915C911197E4ECF4E0BE
:10017000608171812224579F9001469F8001569F84
:10018000100D211D321D749F100D211D321D44E6DE
:1001900050E060E070E00E94F603FD0102831383EB
:1001A00017D0E8ECF4E000810D7F0083E4ECF4E08C
:1001B000008111811A930A930CED13E00E94920AB8
:1001C000229608EC10E0FD0106831783A991C1CFA8
:1001D0001093850000938400089510E007C00F92EB
:1001E0000F900F920F900F920F9013951017B8F376
:1001F000089520E0E2ECF4E0208321832081318126
:1002000002171307D8F708950FEF0ABB07BB04BB0B
:1002100003EF01BB0FEF02B9009361000FE1009300
:10022000640000E00BBB08BB0FE005BB0FEF02BB97
:1002300000E103B900E000936200009365000895B7
:10024000E3DF0E943B020FEC10E00E9407030FEC7B
:1002500010E00E9417030E948A02789408EC10E0D4
:100260000E94F9000EEF13E06CD000E000936A05E5
:1002700015C0A899A89800E00093D10417D00E9457
:1002800060000E94AB00EFECF4E0008111810B3FB5
:10029000104020F00091C80403FFBAD00091D104AF
:1002A000033360F3A899E5CFA89AE5CF0E949D0695
:1002B00000916A050D3FA1F5A99820E090915505A0
:1002C000809156050496A0E0B0E005C0EA0FFB1F40
:1002D0000181200F1196A817B907E2E5F5E0B0F308
:1002E000E80FF91F01812017B9F49A938A930091BE
:1002F00054057BD00091530579D00FE014E021D054
:1003000026960091580571D0009157056FD00DE2E7
:1003100014E017D0249617D000E000936A050EC0B1
:10032000002361F0EBECF4E000811181093C20E056
:10033000104020F02083218320936A05E4E00C9490
:10034000AE060C94920ABA93AA93009153050A3A06
:1003500009F044C0A4ECB4E0009157050093C60432
:10036000009158050093C70471D00091C6043DD098
:1003700001E414E036D00091C70437D003E514E05F
:1003800030D01091C60430E00091C70446E00E94CE
:10039000BC0320E00E946C0440E050EC6FE774E482
:1003A0000E949A0540E050E068EC72E40E9421054A
:1003B0004DEC5CEC6CEC7DE30E94C0040E946E048A
:1003C0000D931C9313D005E614E00BD000E0EFEC86
:1003D000F4E00083018307E00093C804A991B99178
:1003E00008950E94920A2296089510E01A930A93A3
:1003F0000895E199FECF1FBB0EBB2DBBE29AE19A97
:100400000895E199FECF1FBB0EBBE09A0DB308958E
:100410008A932091C6040091C904021799F0809133
:10042000C7040091CA04081769F00EEF0DD0282FF9
:100430000FEF0AD008E714E084DFE4ECF4E0048175
:10044000086004838991089512E0D3CF8A930091C4
:10045000C80402FD0DC00EEF0CD0802F0093C6041F
:100460000FEF07D00093C7048093C9040093CA0418
:10047000E9CF12E0C6CF00E007BF0CE003BF09EFF1
:1004800001BF00E002BF07B7026007BF00E006BF80
:100490000FBD0CE00EBD00E000937A0002E00BBD42
:1004A00000E70ABD00E00DBD0CBD07B7006107BF46
:1004B00000E006BF089527D0E2ECF4E01DD015D08F
:1004C000189521D0EBECF4E017D0028113810F5F77
:1004D0001F4F0283138306810395068304811581D0
:1004E0000F5F1F4F04831583EACF2FBF0991199126
:1004F0002991E991F9910895008111810F5F1F4FB2
:10050000008311830895FA93EA932A931A930A9326
:100510002FB7089500E04BD004E60093700000E090
:100520000093710000917300089523D004EA24D051
:100530001DD007FD02C00197D9F7822F912F089592
:1005400018D00093730004E832D081E090EF0ED011
:1005500007FD02C00197D9F7F0CF0BD004E80CD00B
:1005600005D007FD02C00197D9F70BC000917400B8
:100570000895192F282F08950093740081E090E1C9
:10058000089500917300D9CF0E949D06B02FA12F2E
:10059000822F35D039D00B2F0DD00A2F0BD030D071
:1005A00005D00AE029D0E4E00C94AE0604E90093FB
:1005B0007400089528D005E028C09A938A93902F5C
:1005C000812F01E00093D2041AD0F5DF092F19D052
:1005D00017D015D019D018D09395092F12D0BDDFA0
:1005E0000093D204E3DF01E007D0E5DF0091D204FD
:1005F00010E089919991089510E00C94F90095CF3D
:10060000082F01D001C09CCF02E00C94ED0021978F
:1006100020E02093900009B902E00BB908E00AB984
:1006200006E0009395000CB1088321960895219768
:1006300020E0209398000093990002E000939B0033
:1006400008E900939A0006E000939D0000919C0049
:10065000EBCF5D9BFECF0CB900E010E00895BA939C
:10066000AA93FA93EA936A935A934A933A932A93F2
:100670001A930A936FB710919C00A998E2E5F5E0F0
:10068000008D002369F4123009F04CC002E00083B1
:1006900000E8008F00E00093CB040093CC0442C03C
:1006A000003819F4118300EC3CC0003C19F41283AB
:1006B00000EE37C0003E19F4138301EE32C0013E54
:1006C00061F4148300EF008F3381048110E0332341
:1006D000068B378B148B158B25C024893589DF0158
:1006E000A20FB31F003F91F446895789241735079D
:1006F00040F415961C93048915890F5F1F4F048BD6
:10070000EACF15961C9315970CEF0BC00C3F51F4D4
:10071000133031F403E016960C9316970DEF01C0D9
:1007200000E0008F6FBF099119912991399149918A
:1007300059916991E991F991A991B99118950000A0
:100740008895FECF07EC0DBF03E00EBFC0E0D3E0FD
:100750000E948D0A002311F00E94B10A0E9420011C
:100760000E949F030C949F03149F102D059F100D52
:10077000049F002D110D08954A951AF016950795BE
:10078000FBCF089500241124EFE0001F111F001C6F
:10079000111C0416150610F0041A150AEA95AAF79A
:1007A000001F111FA00100951095089551954195C6
:1007B00050400895FF27552312F4F160F7DF11230D
:1007C00012F4F09507D00E94C203F0FD03D0F1FDB2
:1007D000EDCF089511950195104008954A952AF09E
:1007E0003695279517950795F9CF0895002411247C
:1007F0001001E0E2EA9592F0001F111F221F331F43
:10080000001C111C221C331C041615062606370674
:1008100088F3041A150A260A370AECCF001F111FA5
:10082000221F331FA001B10100951095209530952E
:10083000089530952095109501951F4F2F4F3F4FEC
:100840000895FF27112477FB660F771F089409F49A
:10085000771F679517F8EE27002437FB220F331F09
:10086000089409F4331F279507F8089527FD0EC053
:10087000EE0F001F111F221F3A953230B8F73323B5
:1008800019F427FD31E002C027FF30E0E03821F401
:1008900000FF08940EF488940F4F1F4F2F4F3F4FC7
:1008A000323038F4332319F427FD31E002C027FF3A
:1008B00030E03F3F29F0220F000C3795279508952F
:1008C000ACC0032E002012F40E941904E02F012F67
:1008D000122F232F3EE9D1CF0024F8CFBCDF432FC6
:1008E0004F5748F04F3148F007FC91C03FE72FEFDA
:1008F0001FEF0FEF089533278CC0322F212F102FB9
:100900000E2F4F5141950E94EE0307FE08950C945F
:100910001904F901EE0FFF1F37FBFF3F31F0EF2BFA
:10092000E12BE02B8894B8940895E02BE12B21F083
:1009300008949894B8940895989488943894089555
:10094000FB01EE0FFF1F77FBFF3F31F0EF2BE52B95
:10095000E42B8894B8940895E42BE52B69F3E8CF51
:10096000EFDF68F021F43723262F8A010895372F0F
:10097000FBCFE6DF20F00BF008957327EAF751C0B4
:10098000C8DFE8F3B3F361F3DBDFC8F383F3A1F36C
:1009900058DF401751076207730731F4011411F152
:1009A0000024E89488942BC078F0332E372F732DD1
:1009B000322E262F632D312E152F532D302E042F3E
:1009C000432D302C012C132C371739F06695579591
:1009D0004795F795E0407395F7CFE7FBEE0FE0E022
:1009E00010246AF0EF0F041F151F261F60F42795CF
:1009F00017950795E79508F4689433953ECFEF0B6C
:100A0000040B150B260B39CFE0E87E27B9CF302D2C
:100A1000307822271127002708953FE7302920E862
:100A2000F9CF3FEF2FEFF6CF8BDFD8F3D1F370780C
:100A30003727089585DFA8F3A3F3F9CF3078372758
:100A400093CF67DF70F383F3A9F37ADF50F3B3F347
:100A5000A9F3F7DE0124E8943F57E040370FEF1F7A
:100A600012F0D9F603C03A3E90F26894E0E00A92A0
:100A7000AA933A93AA27332422243327049FF00110
:100A8000059FF00D712D731F149FF00D711D221C19
:100A9000069F700D211C331C159F700D211C331EE9
:100AA000249F700D211C331E169F200C311CAA1F81
:100AB000259F200C311CA31F269F300CA11D3991AE
:100AC0005EF43395A695379427947795F795E79537
:100AD00033953130BCF316C0AA2322F0332351F4EE
:100AE000339510C0339571F4A991099096CFA7FD65
:100AF00009C03A95EE0FFF1F771F221C331CAA1F57
:100B00003230A8F7E894FE2B09F068942A2F81016F
:100B1000E72FA9910990BACE13DF10F00BF087CF21
:100B200080CF0EDFE9F3E0F3032E072670CF032E0C
:100B3000072673CFEEDEA0F37BF399F301DF80F39A
:100B40009BF3A9F37EDE012427FD06C0000F111FD1
:100B5000221F3150E040F8CF67FD06C0440F551FFB
:100B6000661F7150F040F8CFE894371BEF0B3158F7
:100B7000EF4F2AF0EE23E9F63F3FD9F203C03A3EA9
:100B8000A8F26894E0E0F0E01124139440175107B4
:100B9000620738F0315008F46894000F111F221FCB
:100BA000EE1F041B150B260BEF0B000F111F221F4E
:100BB000EE1F0A9279E17A95AAF004171507260725
:100BC000EF0730F0041B150B260BEF0B089401C048
:100BD0008894111C221C331C001C000F111F221FA3
:100BE000EE1FE9CFF0F9E894E22BE12BE02B09F0BE
:100BF00068940694379427941794E79508F46894BA
:100C00007395B9F30990332311F0F0FF09C03694BE
:100C100027941794E79508F4689433953130BCF322
:100C2000012D122D232D32CE8BCE98940895189439
:100C300008956FDED0F3C1F383DEB8F30417150710
:100C40002607370708957CDEA0F063DE90F029F0D8
:100C5000E32FE7273AF47317089572DE51F04EF050
:100C600008940895041715072607370719F016F496
:100C7000B8F78894089564DEE0F34BDED0F3E7DF45
:100C8000C0F3089408957791679157914791179011
:100C900011FA279037900895F9DF041B10E003C084
:100CA000F4DF041B150B20E030E005C0ECDF041B73
:100CB000150B260B370BB8F010FC17C047910790A7
:100CC000E00FF11F0417100540E02407340758F423
:100CD00036F406910024F101E01BF0090994E00FBD
:100CE000F11F27903790F101099411F4D6F7F1CF55
:100CF00031960EF0319650E060E070E047914B3F46
:100D000048F089F34F3F29F04E3F11F077916791FA
:100D100057914791041B150B260B370B39F318F32A
:100D2000E7CFFA92EA92DA92CA92BA92AA929A9289
:100D30008A927A926A925A924A92BA93AA939A9310
:100D40008A930895FF84EE84DD84CC84BB84AA84D6
:100D5000998488847F806E805D804C80BB81AA816D
:100D600099818881F0E0EC0FFD1FEF0108950E944A
:100D70009106C3D37A015B016B018824992450D179
:100D800057D130F160E070E00E941906D1F5098971
:100D9000002309F449C08E149F044CF40CEF801614
:100DA0000FEF900624F000E0088BE818F9080FEF29
:100DB000E00EF01E0A890023A9F100E0098B34C07F
:100DC00027D10E949A0599D30AE0800E00E0901E78
:100DD00047EB53E46AEB71E52AD190F325D160E249
:100DE00071E425D1A0F60E949A0587D301E0800E18
:100DF00000E0901EF3CF0CD17ED306EF800E0FEFF4
:100E0000901E40E057EE6BED7EE207D1A0F308D1D3
:100E100004D108F0BCCF60E271E46DD30FEF800E17
:100E2000901EF5CF01E00A8B0889002319F0662493
:100E3000772444C09920EAF4DDD02701E0D066246D
:100E4000772404C0D7D00FEFE00EF01E51D38614E4
:100E500097041CF40E2D0F29A9F70FEF1FEF0419AB
:100E60001509801691060CF473C0772466246394E8
:100E700025C034017194619400E0700A1FC0DAD07B
:100E80000E946E04402E212F220F220B322F0E942F
:100E90006104A801B901CED00E940405A801B901DE
:100EA00000E010E020E231E426D3042D005DA3D061
:100EB000930101E0F8D2232B09F4A1D0E614F70442
:100EC000F4F6B2D060EA70E4B2D008F041C0442435
:100ED0004394C6010197FC0100810E3251F0040DCC
:100EE00000830A3329F400E300834424439401C0BF
:100EF00044240197AE16BF0670F340FA4EF50889F8
:100F00000023B1F0C60102C000830197A816B906FC
:100F100058F4FC0102910E32FC01B1F732970081C6
:100F2000FC0100830197F1CF01E0800E941E0DC0FB
:100F300001E0C00ED41EC60105C0FC010291FC01F7
:100F400000830197A816B906C0F301E3F5010083F9
:100F50000989002311F408C0C8D2F60102910033B8
:100F6000D9F30E3209F4C1D208890023C1F1F60188
:100F7000019399203AF40DE23FD09194819400E0DE
:100F8000900A02C00BE238D0442455240AE0C00E77
:100F9000D41C01E071D251D0405DF60141936F0144
:100FA0004CD04801012BA9F702E0401600E05006A2
:100FB00084F33201820117D02081830114D0E40D23
:100FC000F51D3B9720830FEF400E501E01E04016A9
:100FD00000E050067CF706EFC00E0FEFD01E860132
:100FE000E3E10C94A206119501951040F601E00F83
:100FF000F11F089500E3F60101936F0108950E2D8E
:101000000F2919F40A89002311F00EE2F5DF089583
:1010100049EF52E065E170E508950CD00C94230689
:1010200003D060E87FE3089540E050E0089502D0E7
:101030000C943B068C019D0108954AE050E0840128
:101040000C94DA030E949106EF97EF976A972A872C
:101050003B874887598768017B0100E00D830E8339
:1010600002C007D210D22BD2053249F00023C9F7B3
:101070000D811E81EF96EF966A96E0E1B2CF008176
:10108000053221F42DD2F5D105E2ECCF00E00C833E
:101090000B830A8309833E0102E105D20DE814E0C7
:1010A000088B198B06C00981002311F40081098384
:1010B00017D2FDD10052B9F3035059F00850B1F3E3
:1010C000025019F0035049F00CC00A8103950A83BD
:1010D000EFCF0B8103950B83EBCF0C8103950C8332
:1010E000E7CF00810A3279F4B8D1AD90BD90B1D18B
:1010F000BB203AF4B194A19400E0B00A0A810395B0
:101100000A83EED114C0AA24BB244AE050E00DC0EB
:1011100021916F0185010E94B403A22EBB24A00E71
:10112000B11E00EDA00E0FEFB01EC4D188F30A81EE
:10113000002311F000E00C83BAD10E32F1F4D0D1CB
:10114000B6D10A3231F489D18D909D9082D1C8D127
:1011500017C0882499244AE050E0ACD188F421914A
:101160006F0184010E94B403822E9924800E911E87
:1011700000ED800E0FEF901EF0CF88248A94982CFB
:1011800080E095D10C5421F00C5131F0045039F429
:1011900081E0C80EA7D103C001E0C00ED81E8FD1D8
:1011A000ECE8F0E0FBBFF0E00C944C0680FB5EF452
:1011B0004D815E81652F660F660B53D1408351834D
:1011C0006283638350CF2D813E814BD12083318355
:1011D0004ACF43D10D9111963CD10A8B2E0103E1E8
:1011E0004BD1FAC03AD16D907D9033D1062D0729AD
:1011F00021F40EE9602E04E0702E992022F400E123
:10120000802E07E2902E80E090E001C00196F3016D
:1012100001913F01002319F088159905BCF368D1AD
:101220002301919581959040680E791ED5C00B8160
:10123000002331F0082D092919F499248824839476
:101240000DEA14E0088B198B0881003739F405D1B9
:10125000F6D000E122D100E009832BC0FDD01EF4BE
:10126000F4D04BD101C0EBD008810F3611F408E067
:10127000F1CF053771F70AE0EDCFEED04D915D91DA
:1012800026F46D917D91E5D005C0E3D0652F660F02
:10129000660B762FCA01DB0177234AF40DE209833E
:1012A0009095A095B09581959F4FAF4FBF4F0AE0A5
:1012B000F4D03E0107E9F7D02E0107E9DDD0082F71
:1012C000092B0A2B0B2B11F001E001C000E00F836A
:1012D000082D092919F40F8100FF17C0FAD0E889F9
:1012E000F989E00DF11D0081F30102933F01F1D076
:1012F00004D1012B022B032B89F7992032F40C81A6
:10130000002319F0FDD001C0DFD08E0109561F4F18
:1013100091D0D4F30B81002309F45EC00F8100FF4C
:101320005BC00881083711F0083549F4E1D0F301BA
:1013300008810083DDD000E3F30100834DC00F3648
:1013400009F04AC0F3010081003309F445C000E30D
:1013500002933F0141C081E0088102500883082DBB
:10136000092939F499248824839408C000E008836B
:1013700080E099201AF406E0802E99246ED065D082
:1013800053DE60E070E00E94230628F44DE24983BA
:10139000732F7058372F3E0142E1640E751E6A0CA0
:1013A0007B1C4B814A938A934A814A93B301A401DF
:1013B000DEDC28010C81002379F0A2D082013AD032
:1013C0005CF482D0FBCF91D00EEB602E04E0702E47
:1013D00001EC402E04E0502E420186189708A81414
:1013E000B9041CF480E090E007C090D0A818B908B8
:1013F00010E0A01AB10AC5010A81002321F401C03E
:101400003FD00197EAF70981002339F032D004C0B8
:1014100030D0F30101913F0136D00FEF800E901EC6
:10142000BAF70A81002309F41ECE01970AF41BCEF5
:1014300027D0FBCF061917090815190508958D91B6
:101440009D9107D0A0E0B0E008950D911D912D91E0
:101450003D91A083B183089580FBF701A081B18104
:101460000895F701A081B1810D911D91F2DFF8017E
:101470000895288539850895400E00E0501E08958E
:101480002885398500E2EA85FB8509950D811E8155
:101490000F5F1F4F0D831E83089510E00C871D877B
:1014A0001E871F870895600E00E0701E0895F601E4
:1014B00000810895F601008100530A300895F60175
:1014C00001916F010883089500E3F30102933F0146
:1014D00008954C855D856E857F85ACDD0C94F603A3
:1014E00001E0C00E00E0D01E08950FEFC00EFBCF4C
:1014F0000FEF600EDACF0E942105C801D9010895CF
:1015000005D010E04501801A910A08950981002351
:1015100011F001E0089500E0089501E0089510E061
:101520000C94290322979E012E5F3F4F2883398315
:10153000BE0140E050E02FE83AE00E9422082296E7
:10154000089520E008D0E9F708953BBF27913BB705
:1015500002D0D9F708952D9301501040202F212B50
:10156000089502EC402E05E1502E00E0602EF201BD
:10157000362D6BBE07911691F201EE5FFF4F3F4F84
:101580003BBFA791B691F201362DEC5FFF4F3F4F65
:101590003BBF479157916691242F252B262B21F095
:1015A000FA01362FD2DF01C0CCDF07E0400E00E0A9
:1015B000501E601EA201662D403D55416040B8F2AC
:1015C0000895FA00C803D01500A900C20400000065
:1015D00070632063686B5F4E47203D202030782584
:1015E000580D0A00736574206F6B2070635F64751B
:1015F00074795F313030203D2025640D0A000000F1
:101600000000640064000D0A20506F776572204F5F
:101610004E206F6B0D0A004D435B307825585D2CD2
:1016200053435B307825585D2C6C656E5B307825B4
:10163000585D0D0A0064305B307825585D2C6431AC
:101640005B307825585D0D0A0050435F70776D5F01
:1016500048203D20307825780D0A0050435F707790
:101660006D5F4C203D20307825780D0A0070635F57
:10167000647574795F313030203D2025640D0A0097
:101680006368616E676520656570726F6D20707745
:101690006D200D0A00303132333435363738394158
:1016A000424344454600286E756C6C20706F696E2D
:1016B0007465722900303132333435363738396148
:0A16C0006263646566003F3F3F006F
:0400000300000000F9
:00000001FF
